{
    "_format": "hh-sol-artifact-1",
    "contractName": "ToucanProtocol",
    "sourceName": "contracts/ToucanProtocol.sol",
    "abi": [
        {
            "inputs": [
                {
                    "internalType": "uint256",
                    "name": "_carbonCreditsPerTon",
                    "type": "uint256"
                },
                {
                    "internalType": "uint256",
                    "name": "_creditPrice",
                    "type": "uint256"
                }
            ],
            "stateMutability": "nonpayable",
            "type": "constructor"
        },
        {
            "anonymous": false,
            "inputs": [
                {
                    "indexed": true,
                    "internalType": "address",
                    "name": "buyer",
                    "type": "address"
                },
                {
                    "indexed": false,
                    "internalType": "uint256",
                    "name": "credits",
                    "type": "uint256"
                }
            ],
            "name": "CreditsPurchased",
            "type": "event"
        },
        {
            "inputs": [],
            "name": "carbonCreditsPerTon",
            "outputs": [
                {
                    "internalType": "uint256",
                    "name": "",
                    "type": "uint256"
                }
            ],
            "stateMutability": "view",
            "type": "function"
        },
        {
            "inputs": [],
            "name": "creditPrice",
            "outputs": [
                {
                    "internalType": "uint256",
                    "name": "",
                    "type": "uint256"
                }
            ],
            "stateMutability": "view",
            "type": "function"
        },
        {
            "inputs": [
                {
                    "internalType": "uint256",
                    "name": "_tonnes",
                    "type": "uint256"
                }
            ],
            "name": "purchaseCarbonCredits",
            "outputs": [],
            "stateMutability": "payable",
            "type": "function"
        },
        {
            "inputs": [
                {
                    "internalType": "uint256",
                    "name": "_carbonCreditsPerTon",
                    "type": "uint256"
                }
            ],
            "name": "setCarbonCreditsPerTon",
            "outputs": [],
            "stateMutability": "nonpayable",
            "type": "function"
        },
        {
            "inputs": [
                {
                    "internalType": "uint256",
                    "name": "_creditPrice",
                    "type": "uint256"
                }
            ],
            "name": "setCreditPrice",
            "outputs": [],
            "stateMutability": "nonpayable",
            "type": "function"
        },
        {
            "inputs": [],
            "name": "totalSupply",
            "outputs": [
                {
                    "internalType": "uint256",
                    "name": "",
                    "type": "uint256"
                }
            ],
            "stateMutability": "view",
            "type": "function"
        }
    ],
    "bytecode": "0x608060405234801561001057600080fd5b506040516105a73803806105a783398181016040528101906100329190610082565b816000819055508060018190555050506100c2565b600080fd5b6000819050919050565b61005f8161004c565b811461006a57600080fd5b50565b60008151905061007c81610056565b92915050565b6000806040838503121561009957610098610047565b5b60006100a78582860161006d565b92505060206100b88582860161006d565b9150509250929050565b6104d6806100d16000396000f3fe6080604052600436106100555760003560e01c806318160ddd1461005a578063ad17a0b314610085578063ca6358cd146100ae578063caeb4e6c146100d9578063cc8279fc14610104578063d8628a4b14610120575b600080fd5b34801561006657600080fd5b5061006f610149565b60405161007c9190610299565b60405180910390f35b34801561009157600080fd5b506100ac60048036038101906100a791906102e5565b61014f565b005b3480156100ba57600080fd5b506100c3610159565b6040516100d09190610299565b60405180910390f35b3480156100e557600080fd5b506100ee61015f565b6040516100fb9190610299565b60405180910390f35b61011e600480360381019061011991906102e5565b610165565b005b34801561012c57600080fd5b50610147600480360381019061014291906102e5565b610276565b005b60025481565b8060018190555050565b60015481565b60005481565b600154816101739190610341565b34146101b4576040517f08c379a00000000000000000000000000000000000000000000000000000000081526004016101ab906103e0565b60405180910390fd5b60008054826101c39190610341565b90506000816002546101d59190610400565b905060025481101561021c576040517f08c379a000000000000000000000000000000000000000000000000000000000815260040161021390610480565b60405180910390fd5b806002819055503373ffffffffffffffffffffffffffffffffffffffff167faf9b1749af5a19a3405bb65598b8f92f4b0c52cc3c7e6110d03469ea2f532148836040516102699190610299565b60405180910390a2505050565b8060008190555050565b6000819050919050565b61029381610280565b82525050565b60006020820190506102ae600083018461028a565b92915050565b600080fd5b6102c281610280565b81146102cd57600080fd5b50565b6000813590506102df816102b9565b92915050565b6000602082840312156102fb576102fa6102b4565b5b6000610309848285016102d0565b91505092915050565b7f4e487b7100000000000000000000000000000000000000000000000000000000600052601160045260246000fd5b600061034c82610280565b915061035783610280565b925082820261036581610280565b9150828204841483151761037c5761037b610312565b5b5092915050565b600082825260208201905092915050565b7f496e636f7272656374207061796d656e7420616d6f756e740000000000000000600082015250565b60006103ca601883610383565b91506103d582610394565b602082019050919050565b600060208201905081810360008301526103f9816103bd565b9050919050565b600061040b82610280565b915061041683610280565b925082820190508082111561042e5761042d610312565b5b92915050565b7f496e7465676572206f766572666c6f7700000000000000000000000000000000600082015250565b600061046a601083610383565b915061047582610434565b602082019050919050565b600060208201905081810360008301526104998161045d565b905091905056fea2646970667358221220bc7bf33c4d79247b58a08053a523713d8a486c2ca590e5ddc9eb8f3603d618e764736f6c63430008110033",
    "linkReferences": {},
    "deployedLinkReferences": {}
}